{"abi":[{"type":"constructor","inputs":[{"name":"_visaSystem","type":"address","internalType":"address"}],"stateMutability":"nonpayable"},{"type":"function","name":"DEFAULT_ADMIN_ROLE","inputs":[],"outputs":[{"name":"","type":"bytes32","internalType":"bytes32"}],"stateMutability":"view"},{"type":"function","name":"EMBASSY_ROLE","inputs":[],"outputs":[{"name":"","type":"bytes32","internalType":"bytes32"}],"stateMutability":"view"},{"type":"function","name":"documentRequests","inputs":[{"name":"","type":"address","internalType":"address"},{"name":"","type":"uint256","internalType":"uint256"}],"outputs":[{"name":"","type":"string","internalType":"string"}],"stateMutability":"view"},{"type":"function","name":"getRoleAdmin","inputs":[{"name":"role","type":"bytes32","internalType":"bytes32"}],"outputs":[{"name":"","type":"bytes32","internalType":"bytes32"}],"stateMutability":"view"},{"type":"function","name":"grantRole","inputs":[{"name":"role","type":"bytes32","internalType":"bytes32"},{"name":"account","type":"address","internalType":"address"}],"outputs":[],"stateMutability":"nonpayable"},{"type":"function","name":"hasRole","inputs":[{"name":"role","type":"bytes32","internalType":"bytes32"},{"name":"account","type":"address","internalType":"address"}],"outputs":[{"name":"","type":"bool","internalType":"bool"}],"stateMutability":"view"},{"type":"function","name":"overrideDecision","inputs":[{"name":"applicant","type":"address","internalType":"address"},{"name":"approve","type":"bool","internalType":"bool"},{"name":"reason","type":"string","internalType":"string"}],"outputs":[],"stateMutability":"nonpayable"},{"type":"function","name":"renounceRole","inputs":[{"name":"role","type":"bytes32","internalType":"bytes32"},{"name":"callerConfirmation","type":"address","internalType":"address"}],"outputs":[],"stateMutability":"nonpayable"},{"type":"function","name":"requestAdditionalDocuments","inputs":[{"name":"applicant","type":"address","internalType":"address"},{"name":"docs","type":"string","internalType":"string"}],"outputs":[],"stateMutability":"nonpayable"},{"type":"function","name":"revokeRole","inputs":[{"name":"role","type":"bytes32","internalType":"bytes32"},{"name":"account","type":"address","internalType":"address"}],"outputs":[],"stateMutability":"nonpayable"},{"type":"function","name":"supportsInterface","inputs":[{"name":"interfaceId","type":"bytes4","internalType":"bytes4"}],"outputs":[{"name":"","type":"bool","internalType":"bool"}],"stateMutability":"view"},{"type":"event","name":"RoleAdminChanged","inputs":[{"name":"role","type":"bytes32","indexed":true,"internalType":"bytes32"},{"name":"previousAdminRole","type":"bytes32","indexed":true,"internalType":"bytes32"},{"name":"newAdminRole","type":"bytes32","indexed":true,"internalType":"bytes32"}],"anonymous":false},{"type":"event","name":"RoleGranted","inputs":[{"name":"role","type":"bytes32","indexed":true,"internalType":"bytes32"},{"name":"account","type":"address","indexed":true,"internalType":"address"},{"name":"sender","type":"address","indexed":true,"internalType":"address"}],"anonymous":false},{"type":"event","name":"RoleRevoked","inputs":[{"name":"role","type":"bytes32","indexed":true,"internalType":"bytes32"},{"name":"account","type":"address","indexed":true,"internalType":"address"},{"name":"sender","type":"address","indexed":true,"internalType":"address"}],"anonymous":false},{"type":"error","name":"AccessControlBadConfirmation","inputs":[]},{"type":"error","name":"AccessControlUnauthorizedAccount","inputs":[{"name":"account","type":"address","internalType":"address"},{"name":"neededRole","type":"bytes32","internalType":"bytes32"}]},{"type":"error","name":"EmbassyGateway__Unauthorized","inputs":[]}],"bytecode":{"object":"0x608034607057601f610f7938819003918201601f19168301916001600160401b03831184841017607457808492602094604052833981010312607057516001600160a01b03811690819003607057600180546001600160a01b031916919091179055604051610ef090816100898239f35b5f80fd5b634e487b7160e01b5f52604160045260245ffdfe6080806040526004361015610012575f80fd5b5f905f3560e01c90816301ffc9a714610abc57508063248a9ca314610a8a5780632f2ff15d14610a4d57806336568abe146109e3578063570d0430146105f25780638d4bc6b31461030f57806391d14854146102b8578063a217fddf1461029c578063d4f1de3c14610261578063d547741f1461021a5763d6b30b8214610097575f80fd5b34610217576040600319360112610217576100b0610b7d565b73ffffffffffffffffffffffffffffffffffffffff168152600260205260408120805460243590811015610215576100e791610bce565b6101e95760405190828154916100fc83610c10565b9081855260208501936001811690815f146101ae5750600114610173575b856040867fffffffffffffffffffffffffffffffffffffffffffffffffffffffffffffffe0601f8861014e848a0385610c61565b8451958694602086525180928160208801528787015e85828601015201168101030190f35b8552602085208592505b8183106101945750508201602001601f604061011a565b60018160209294939454838589010152019101919061017d565b7fffffffffffffffffffffffffffffffffffffffffffffffffffffffffffffff001685525050151560051b83016020019050601f604061011a565b6024827f4e487b7100000000000000000000000000000000000000000000000000000000815280600452fd5b825b80fd5b50346102175760406003193601126102175761025d60043561023a610b5a565b90610258610253825f525f602052600160405f20015490565b610cba565b610df2565b5080f35b503461021757806003193601126102175760206040517f79e724db6f0eb37fb2d54a6469bf9ac714c4c2b8c4894ef65dd60beb1673a7628152f35b5034610217578060031936011261021757602090604051908152f35b50346102175760406003193601126102175773ffffffffffffffffffffffffffffffffffffffff60406102e9610b5a565b926004358152806020522091165f52602052602060ff60405f2054166040519015158152f35b503461021757606060031936011261021757610329610b7d565b906024359182151583036105ee5760443567ffffffffffffffff811161021557610357903690600401610ba0565b919073ffffffffffffffffffffffffffffffffffffffff600154166040517fd4f1de3c000000000000000000000000000000000000000000000000000000008152602081600481855afa9081156105ac5786916105b7575b506040517f91d148540000000000000000000000000000000000000000000000000000000081526004810191909152336024820152602081604481855afa9081156105ac57869161057d575b50156105555784955f146104a957505060015473ffffffffffffffffffffffffffffffffffffffff169150813b156104a55773ffffffffffffffffffffffffffffffffffffffff602484928360405195869485937f872fa58e0000000000000000000000000000000000000000000000000000000085521660048401525af1801561049a5761048957505080f35b8161049391610c61565b6102175780f35b6040513d84823e3d90fd5b5050fd5b803b156105515773ffffffffffffffffffffffffffffffffffffffff85606481957fffffffffffffffffffffffffffffffffffffffffffffffffffffffffffffffe0601f896040519a8b998a9889967fed1d5e6b000000000000000000000000000000000000000000000000000000008852166004870152604060248701528160448701528686013785858286010152011681010301925af1801561049a5761048957505080f35b8480fd5b6004857fbbe2af99000000000000000000000000000000000000000000000000000000008152fd5b61059f915060203d6020116105a5575b6105978183610c61565b810190610ca2565b5f6103fb565b503d61058d565b6040513d88823e3d90fd5b90506020813d6020116105e6575b816105d260209383610c61565b810103126105e2575160206103af565b5f80fd5b3d91506105c5565b5080fd5b50346105e25760406003193601126105e25761060c610b7d565b9060243567ffffffffffffffff81116105e25761062d903690600401610ba0565b909273ffffffffffffffffffffffffffffffffffffffff600154166040517fd4f1de3c000000000000000000000000000000000000000000000000000000008152602081600481855afa908115610814575f916109af575b506040517f91d1485400000000000000000000000000000000000000000000000000000000815260048101919091523360248201529060209082908180604481015b03915afa908115610814575f91610990575b50156109685773ffffffffffffffffffffffffffffffffffffffff1690815f52600260205260405f2080546801000000000000000081101561090f5761072491600182018155610bce565b91909161093c5767ffffffffffffffff811161090f576107448254610c10565b601f81116108ca575b505f601f821160011461082a5781929394955f9261081f575b50507fffffffffffffffffffffffffffffffffffffffffffffffffffffffffffffffff8260011b9260031b1c19161790555b73ffffffffffffffffffffffffffffffffffffffff6001541690813b156105e2575f916044839260405194859384927fa39a70590000000000000000000000000000000000000000000000000000000084526004840152600360248401525af1801561081457610806575080f35b61081291505f90610c61565b005b6040513d5f823e3d90fd5b013590505f80610766565b7fffffffffffffffffffffffffffffffffffffffffffffffffffffffffffffffe0821695835f5260205f20915f5b8881106108b25750836001959697981061087a575b505050811b019055610798565b7fffffffffffffffffffffffffffffffffffffffffffffffffffffffffffffffff60f88560031b161c199101351690555f808061086d565b90926020600181928686013581550194019101610858565b825f5260205f20601f830160051c81019160208410610905575b601f0160051c01905b8181106108fa575061074d565b5f81556001016108ed565b90915081906108e4565b7f4e487b71000000000000000000000000000000000000000000000000000000005f52604160045260245ffd5b7f4e487b71000000000000000000000000000000000000000000000000000000005f525f60045260245ffd5b7fbbe2af99000000000000000000000000000000000000000000000000000000005f5260045ffd5b6109a9915060203d6020116105a5576105978183610c61565b5f6106d9565b90506020813d6020116109db575b816109ca60209383610c61565b810103126105e257516106c7610685565b3d91506109bd565b346105e25760406003193601126105e2576109fc610b5a565b3373ffffffffffffffffffffffffffffffffffffffff821603610a255761081290600435610df2565b7f6697b232000000000000000000000000000000000000000000000000000000005f5260045ffd5b346105e25760406003193601126105e257610812600435610a6c610b5a565b90610a85610253825f525f602052600160405f20015490565b610d20565b346105e25760206003193601126105e2576020610ab46004355f525f602052600160405f20015490565b604051908152f35b346105e25760206003193601126105e257600435907fffffffff0000000000000000000000000000000000000000000000000000000082168092036105e257817f7965db0b0000000000000000000000000000000000000000000000000000000060209314908115610b30575b5015158152f35b7f01ffc9a70000000000000000000000000000000000000000000000000000000091501483610b29565b6024359073ffffffffffffffffffffffffffffffffffffffff821682036105e257565b6004359073ffffffffffffffffffffffffffffffffffffffff821682036105e257565b9181601f840112156105e25782359167ffffffffffffffff83116105e257602083818601950101116105e257565b8054821015610be3575f5260205f2001905f90565b7f4e487b71000000000000000000000000000000000000000000000000000000005f52603260045260245ffd5b90600182811c92168015610c57575b6020831014610c2a57565b7f4e487b71000000000000000000000000000000000000000000000000000000005f52602260045260245ffd5b91607f1691610c1f565b90601f7fffffffffffffffffffffffffffffffffffffffffffffffffffffffffffffffe0910116810190811067ffffffffffffffff82111761090f57604052565b908160209103126105e2575180151581036105e25790565b805f525f60205260405f2073ffffffffffffffffffffffffffffffffffffffff33165f5260205260ff60405f20541615610cf15750565b7fe2517d3f000000000000000000000000000000000000000000000000000000005f523360045260245260445ffd5b805f525f60205260405f2073ffffffffffffffffffffffffffffffffffffffff83165f5260205260ff60405f205416155f14610dec57805f525f60205260405f2073ffffffffffffffffffffffffffffffffffffffff83165f5260205260405f2060017fffffffffffffffffffffffffffffffffffffffffffffffffffffffffffffff0082541617905573ffffffffffffffffffffffffffffffffffffffff339216907f2f8788117e7eff1d82e926ec794901d17c78024a50270940304540a733656f0d5f80a4600190565b50505f90565b805f525f60205260405f2073ffffffffffffffffffffffffffffffffffffffff83165f5260205260ff60405f2054165f14610dec57805f525f60205260405f2073ffffffffffffffffffffffffffffffffffffffff83165f5260205260405f207fffffffffffffffffffffffffffffffffffffffffffffffffffffffffffffff00815416905573ffffffffffffffffffffffffffffffffffffffff339216907ff6391f5c32d9c69d2a47ea670b442974b53935d1edc7fd64eb21e047a839171b5f80a460019056fea26469706673582212206871aa0ecb1d40ade5d9ed20fe3077e3d7ab6f6fd31584cbbda30ce6a9a8a30c64736f6c634300081c0033","linkReferences":{}},"methodIdentifiers":{"DEFAULT_ADMIN_ROLE()":"a217fddf","EMBASSY_ROLE()":"d4f1de3c","documentRequests(address,uint256)":"d6b30b82","getRoleAdmin(bytes32)":"248a9ca3","grantRole(bytes32,address)":"2f2ff15d","hasRole(bytes32,address)":"91d14854","overrideDecision(address,bool,string)":"8d4bc6b3","renounceRole(bytes32,address)":"36568abe","requestAdditionalDocuments(address,string)":"570d0430","revokeRole(bytes32,address)":"d547741f","supportsInterface(bytes4)":"01ffc9a7"},"id":29}