{"abi":[{"type":"constructor","inputs":[{"name":"_treasury","type":"address","internalType":"address"}],"stateMutability":"nonpayable"},{"type":"fallback","stateMutability":"payable"},{"type":"receive","stateMutability":"payable"},{"type":"function","name":"getTotalPaid","inputs":[{"name":"applicant","type":"address","internalType":"address"}],"outputs":[{"name":"","type":"uint256","internalType":"uint256"}],"stateMutability":"view"},{"type":"function","name":"payWithETH","inputs":[{"name":"applicant","type":"address","internalType":"address"}],"outputs":[],"stateMutability":"payable"},{"type":"function","name":"totalPayments","inputs":[{"name":"","type":"address","internalType":"address"}],"outputs":[{"name":"","type":"uint256","internalType":"uint256"}],"stateMutability":"view"},{"type":"function","name":"treasury","inputs":[],"outputs":[{"name":"","type":"address","internalType":"address"}],"stateMutability":"view"},{"type":"event","name":"PaidInETH","inputs":[{"name":"applicant","type":"address","indexed":false,"internalType":"address"},{"name":"amount","type":"uint256","indexed":false,"internalType":"uint256"}],"anonymous":false},{"type":"error","name":"FeeManager__NoETHSent","inputs":[]},{"type":"error","name":"FeeManager__PaymentFailed","inputs":[]}],"bytecode":{"object":"0x60a034606c57601f6103b338819003918201601f19168301916001600160401b03831184841017607057808492602094604052833981010312606c57516001600160a01b0381168103606c5760805260405161032e9081610085823960805181818160f401526101700152f35b5f80fd5b634e487b7160e01b5f52604160045260245ffdfe60806040526004361015610010575b005b5f3560e01c8063279805c91461011857806361d027b3146100aa578063cd4700fc146100415763d881db190361000e575b346100a65760207ffffffffffffffffffffffffffffffffffffffffffffffffffffffffffffffffc3601126100a65760043573ffffffffffffffffffffffffffffffffffffffff81168091036100a6575f525f602052602060405f2054604051908152f35b5f80fd5b346100a6575f7ffffffffffffffffffffffffffffffffffffffffffffffffffffffffffffffffc3601126100a657602060405173ffffffffffffffffffffffffffffffffffffffff7f0000000000000000000000000000000000000000000000000000000000000000168152f35b60207ffffffffffffffffffffffffffffffffffffffffffffffffffffffffffffffffc3601126100a65760043573ffffffffffffffffffffffffffffffffffffffff81168091036100a65734156102d0575f808080347f00000000000000000000000000000000000000000000000000000000000000005af13d156102cb573d67ffffffffffffffff811161029e57604051907fffffffffffffffffffffffffffffffffffffffffffffffffffffffffffffffe0603f81601f8401160116820182811067ffffffffffffffff82111761029e5760405281525f60203d92013e5b1561027657805f525f60205260405f20805491348301809311610249577f885052ba36ac269b0146f721da1d542c152d492bff697a2912b63af3abec6f5292604092558151908152346020820152a1005b7f4e487b71000000000000000000000000000000000000000000000000000000005f52601160045260245ffd5b7fdd991989000000000000000000000000000000000000000000000000000000005f5260045ffd5b7f4e487b71000000000000000000000000000000000000000000000000000000005f52604160045260245ffd5b6101f8565b7f1654ab5d000000000000000000000000000000000000000000000000000000005f5260045ffdfea264697066735822122033b3a1155a5850170331cf5718e38861576c48b51c0558eebb013149d7689b6064736f6c634300081c0033","linkReferences":{}},"methodIdentifiers":{"getTotalPaid(address)":"d881db19","payWithETH(address)":"279805c9","totalPayments(address)":"cd4700fc","treasury()":"61d027b3"},"id":30}