{"abi":[{"type":"constructor","inputs":[{"name":"_visaSystem","type":"address","internalType":"address"}],"stateMutability":"nonpayable"},{"type":"function","name":"applicantPredictions","inputs":[{"name":"","type":"address","internalType":"address"},{"name":"","type":"uint256","internalType":"uint256"}],"outputs":[{"name":"estimatedDays","type":"uint256","internalType":"uint256"},{"name":"successProbability","type":"uint256","internalType":"uint256"},{"name":"timestamp","type":"uint256","internalType":"uint256"}],"stateMutability":"view"},{"type":"function","name":"generatePrediction","inputs":[{"name":"applicant","type":"address","internalType":"address"}],"outputs":[{"name":"","type":"tuple","internalType":"struct TimelineEnhancer.Prediction","components":[{"name":"estimatedDays","type":"uint256","internalType":"uint256"},{"name":"successProbability","type":"uint256","internalType":"uint256"},{"name":"timestamp","type":"uint256","internalType":"uint256"}]}],"stateMutability":"nonpayable"},{"type":"error","name":"TimelineEnhancer__VisaSystemNotConfigured","inputs":[]}],"bytecode":{"object":"0x608034606f57601f61077138819003918201601f19168301916001600160401b03831184841017607357808492602094604052833981010312606f57516001600160a01b03811690819003606f575f80546001600160a01b0319169190911790556040516106e990816100888239f35b5f80fd5b634e487b7160e01b5f52604160045260245ffdfe6080806040526004361015610012575f80fd5b5f3560e01c908163bf664cd8146100c8575063f853c56114610032575f80fd5b346100c45760407ffffffffffffffffffffffffffffffffffffffffffffffffffffffffffffffffc3601126100c457610069610472565b73ffffffffffffffffffffffffffffffffffffffff60243591165f52600160205260405f2080548210156100c4576060916100a391610495565b50805490600260018201549101549060405192835260208301526040820152f35b5f80fd5b346100c45760207ffffffffffffffffffffffffffffffffffffffffffffffffffffffffffffffffc3601126100c4575f6040610102610472565b9261010c816104db565b828152826020820152015273ffffffffffffffffffffffffffffffffffffffff5f5416801561044a5773ffffffffffffffffffffffffffffffffffffffff604051927f2a35c43400000000000000000000000000000000000000000000000000000000845216806004840152606083602481855afa9283156103bd575f93610406575b50604051917f6db81e39000000000000000000000000000000000000000000000000000000008352816004840152602083602481845afa9283156103bd575f936103c8575b506020602491604051928380927fcec30b710000000000000000000000000000000000000000000000000000000082528660048301525afa80156103bd5761038e575b50605061022383610554565b9311156103855760ff605a5b169160038110156103585760058102908082046005149015171561032b57820180921161032b5760405192610263846104db565b83526020830191825260408301904282525f52600160205260405f208054680100000000000000008110156102fe576102a191600182018155610495565b9290926102d25760609351928381558151600182015560028351910155604051928352516020830152516040820152f35b7f4e487b71000000000000000000000000000000000000000000000000000000005f525f60045260245ffd5b7f4e487b71000000000000000000000000000000000000000000000000000000005f52604160045260245ffd5b7f4e487b71000000000000000000000000000000000000000000000000000000005f52601160045260245ffd5b7f4e487b71000000000000000000000000000000000000000000000000000000005f52602160045260245ffd5b60ff603c61022f565b6020813d6020116103b5575b816103a7602093836104f7565b810103126100c45751610217565b3d915061039a565b6040513d5f823e3d90fd5b9092506020813d6020116103fe575b816103e4602093836104f7565b810103126100c4575160038110156100c4579160206101d4565b3d91506103d7565b92506060833d606011610442575b81610421606093836104f7565b810103126100c4576007835110156100c4576040602084015193015161018f565b3d9150610414565b7f399b1729000000000000000000000000000000000000000000000000000000005f5260045ffd5b6004359073ffffffffffffffffffffffffffffffffffffffff821682036100c457565b80548210156104ae575f52600360205f20910201905f90565b7f4e487b71000000000000000000000000000000000000000000000000000000005f52603260045260245ffd5b6060810190811067ffffffffffffffff8211176102fe57604052565b90601f7fffffffffffffffffffffffffffffffffffffffffffffffffffffffffffffffe0910116810190811067ffffffffffffffff8211176102fe57604052565b908160209103126100c4575163ffffffff811681036100c45790565b600381101561035857806105ef57506004602073ffffffffffffffffffffffffffffffffffffffff5f5416604051928380927ffbb2da570000000000000000000000000000000000000000000000000000000082525afa80156103bd5763ffffffff915f916105c257501690565b6105e4915060203d6020116105e8575b6105dc81836104f7565b810190610538565b1690565b503d6105d2565b600103610655576004602073ffffffffffffffffffffffffffffffffffffffff5f5416604051928380927fba95e8bd0000000000000000000000000000000000000000000000000000000082525afa80156103bd5763ffffffff915f916105c257501690565b6004602073ffffffffffffffffffffffffffffffffffffffff5f5416604051928380927ef47b650000000000000000000000000000000000000000000000000000000082525afa80156103bd5763ffffffff915f916105c25750169056fea2646970667358221220881a8ec8750ae430000a8fab06e03d76b73cd58d4b82bba601e10e32c67b865864736f6c634300081c0033","linkReferences":{}},"methodIdentifiers":{"applicantPredictions(address,uint256)":"f853c561","generatePrediction(address)":"bf664cd8"},"id":32}