{"abi":[{"type":"constructor","inputs":[{"name":"_visaSystem","type":"address","internalType":"address"}],"stateMutability":"nonpayable"},{"type":"function","name":"ADMIN_ROLE","inputs":[],"outputs":[{"name":"","type":"bytes32","internalType":"bytes32"}],"stateMutability":"view"},{"type":"function","name":"DEFAULT_ADMIN_ROLE","inputs":[],"outputs":[{"name":"","type":"bytes32","internalType":"bytes32"}],"stateMutability":"view"},{"type":"function","name":"UNIVERSITY_ROLE","inputs":[],"outputs":[{"name":"","type":"bytes32","internalType":"bytes32"}],"stateMutability":"view"},{"type":"function","name":"getRoleAdmin","inputs":[{"name":"role","type":"bytes32","internalType":"bytes32"}],"outputs":[{"name":"","type":"bytes32","internalType":"bytes32"}],"stateMutability":"view"},{"type":"function","name":"grantRole","inputs":[{"name":"role","type":"bytes32","internalType":"bytes32"},{"name":"account","type":"address","internalType":"address"}],"outputs":[],"stateMutability":"nonpayable"},{"type":"function","name":"grantRole","inputs":[{"name":"account","type":"address","internalType":"address"},{"name":"role","type":"bytes32","internalType":"bytes32"}],"outputs":[],"stateMutability":"nonpayable"},{"type":"function","name":"hasRole","inputs":[{"name":"role","type":"bytes32","internalType":"bytes32"},{"name":"account","type":"address","internalType":"address"}],"outputs":[{"name":"","type":"bool","internalType":"bool"}],"stateMutability":"view"},{"type":"function","name":"isValidProgram","inputs":[{"name":"universityId","type":"string","internalType":"string"},{"name":"programId","type":"string","internalType":"string"}],"outputs":[{"name":"","type":"bool","internalType":"bool"}],"stateMutability":"view"},{"type":"function","name":"programs","inputs":[{"name":"","type":"bytes32","internalType":"bytes32"}],"outputs":[{"name":"requirements","type":"string","internalType":"string"},{"name":"tuition","type":"uint256","internalType":"uint256"},{"name":"requiresInterview","type":"bool","internalType":"bool"},{"name":"isActive","type":"bool","internalType":"bool"}],"stateMutability":"view"},{"type":"function","name":"registerProgram","inputs":[{"name":"programId","type":"string","internalType":"string"}],"outputs":[],"stateMutability":"nonpayable"},{"type":"function","name":"registerUniversity","inputs":[{"name":"universityAddr","type":"address","internalType":"address"},{"name":"universityId","type":"string","internalType":"string"}],"outputs":[],"stateMutability":"nonpayable"},{"type":"function","name":"renounceRole","inputs":[{"name":"role","type":"bytes32","internalType":"bytes32"},{"name":"callerConfirmation","type":"address","internalType":"address"}],"outputs":[],"stateMutability":"nonpayable"},{"type":"function","name":"revokeRole","inputs":[{"name":"role","type":"bytes32","internalType":"bytes32"},{"name":"account","type":"address","internalType":"address"}],"outputs":[],"stateMutability":"nonpayable"},{"type":"function","name":"supportsInterface","inputs":[{"name":"interfaceId","type":"bytes4","internalType":"bytes4"}],"outputs":[{"name":"","type":"bool","internalType":"bool"}],"stateMutability":"view"},{"type":"function","name":"universityRegistry","inputs":[{"name":"","type":"address","internalType":"address"}],"outputs":[{"name":"","type":"string","internalType":"string"}],"stateMutability":"view"},{"type":"function","name":"verifyAdmission","inputs":[{"name":"applicant","type":"address","internalType":"address"},{"name":"programId","type":"string","internalType":"string"}],"outputs":[],"stateMutability":"nonpayable"},{"type":"event","name":"ProgramRegistered","inputs":[{"name":"universityId","type":"string","indexed":true,"internalType":"string"},{"name":"programId","type":"string","indexed":false,"internalType":"string"}],"anonymous":false},{"type":"event","name":"RoleAdminChanged","inputs":[{"name":"role","type":"bytes32","indexed":true,"internalType":"bytes32"},{"name":"previousAdminRole","type":"bytes32","indexed":true,"internalType":"bytes32"},{"name":"newAdminRole","type":"bytes32","indexed":true,"internalType":"bytes32"}],"anonymous":false},{"type":"event","name":"RoleGranted","inputs":[{"name":"role","type":"bytes32","indexed":true,"internalType":"bytes32"},{"name":"account","type":"address","indexed":true,"internalType":"address"},{"name":"sender","type":"address","indexed":true,"internalType":"address"}],"anonymous":false},{"type":"event","name":"RoleRevoked","inputs":[{"name":"role","type":"bytes32","indexed":true,"internalType":"bytes32"},{"name":"account","type":"address","indexed":true,"internalType":"address"},{"name":"sender","type":"address","indexed":true,"internalType":"address"}],"anonymous":false},{"type":"error","name":"AccessControlBadConfirmation","inputs":[]},{"type":"error","name":"AccessControlUnauthorizedAccount","inputs":[{"name":"account","type":"address","internalType":"address"},{"name":"neededRole","type":"bytes32","internalType":"bytes32"}]},{"type":"error","name":"UniversityHandler__ApplicantNotFound","inputs":[]},{"type":"error","name":"UniversityHandler__InvalidProgram","inputs":[]}],"bytecode":{"object":"0x60803461009257601f61156f38819003918201601f19168301916001600160401b038311848410176100965780849260209460405283398101031261009257516001600160a01b038116908190036100925761005a336100aa565b5061006433610120565b5061006e336101b3565b50600180546001600160a01b0319169190911790556040516112a890816102478239f35b5f80fd5b634e487b7160e01b5f52604160045260245ffd5b6001600160a01b0381165f9081525f51602061154f5f395f51905f52602052604090205460ff1661011b576001600160a01b03165f8181525f51602061154f5f395f51905f5260205260408120805460ff191660011790553391905f5160206114ef5f395f51905f528180a4600190565b505f90565b6001600160a01b0381165f9081525f51602061152f5f395f51905f52602052604090205460ff1661011b576001600160a01b03165f8181525f51602061152f5f395f51905f5260205260408120805460ff191660011790553391907fa49807205ce4d355092ef5a8a18f56e8913cf4a201fbe287825b095693c21775905f5160206114ef5f395f51905f529080a4600190565b6001600160a01b0381165f9081525f51602061150f5f395f51905f52602052604090205460ff1661011b576001600160a01b03165f8181525f51602061150f5f395f51905f5260205260408120805460ff191660011790553391907f5bb0bf1fabd5e975fc7a4520766d9e86e0eb281f8c7c44fcd3dfe60a11e786ca905f5160206114ef5f395f51905f529080a460019056fe6080806040526004361015610012575f80fd5b5f905f3560e01c90816301ffc9a714610bd857508063248a9ca314610ba65780632f2ff15d14610b6957806336568abe14610aff5780633d17841414610ac557806358e39e3a14610a1d57806375b238fc146109e357806383ec9eee1461073357806391d14854146106dd578063a217fddf146106c3578063ab2742dc14610618578063ace3d59514610483578063c50be19114610426578063d547741f146103e4578063d7d9a2a7146103795763ef23e929146100ce575f80fd5b346102bd576100dc36610cea565b90916100e6610ee1565b335f5260036020526100fa60405f20610daf565b92604051926020840185519461013381602085818b0199808b885e830181898483015f81523701015f815203601f198101835282610d8c565b5190205f52600260205260ff600260405f20015460081c16156103515773ffffffffffffffffffffffffffffffffffffffff600154169473ffffffffffffffffffffffffffffffffffffffff604051947f3e7cdae100000000000000000000000000000000000000000000000000000000865216938460048201526020816024818a5afa9081156102b2575f91610316575b50156102ee57602082610225946001946040519889955180918688015e8501917f3a0000000000000000000000000000000000000000000000000000000000000085840152602183013701015f838201520301601f198101845283610d8c565b6301e133804201928342116102c157803b156102bd575f928361028c93604051968795869485937f81748387000000000000000000000000000000000000000000000000000000008552600485015260036024850152608060448501526084840190610e6d565b90606483015203925af180156102b2576102a4575080f35b6102b091505f90610d8c565b005b6040513d5f823e3d90fd5b5f80fd5b7f4e487b71000000000000000000000000000000000000000000000000000000005f52601160045260245ffd5b7f67712817000000000000000000000000000000000000000000000000000000005f5260045ffd5b90506020813d602011610349575b8161033160209383610d8c565b810103126102bd575180151581036102bd575f6101c5565b3d9150610324565b7fe488fe87000000000000000000000000000000000000000000000000000000005f5260045ffd5b346102bd5760206003193601126102bd576004355f5260026020526103c560405f206103a481610daf565b9060ff60026001830154920154604051948594608086526080860190610e6d565b9260208501528181161515604085015260081c16151560608301520390f35b346102bd5760406003193601126102bd576102b0600435610403610c76565b9061042161041c825f525f602052600160405f20015490565b610f69565b6111aa565b346102bd5760206003193601126102bd5773ffffffffffffffffffffffffffffffffffffffff610454610c99565b165f52600360205261047f61046b60405f20610daf565b604051918291602083526020830190610e6d565b0390f35b346102bd5761049136610cea565b335f9081527fad3228b676f7d3cd4284a5443f17f1962b36e491b30a40b2405849e597ba5fb560205260409020549092919060ff16156105e85773ffffffffffffffffffffffffffffffffffffffff82165f52600360205260405f209067ffffffffffffffff84116105bb576105118461050b8454610d3b565b84610e92565b5f90601f8511600114610554579380610542926102b0965f92610549575b50505f198260011b9260031b1c19161790565b9055610fcf565b01359050868061052f565b601f19851691835f5260205f20925f5b8181106105a357509160019391876102b098941061058a575b505050811b019055610fcf565b5f1960f88560031b161c1991013516905585808061057d565b91936020600181928787013581550195019201610564565b7f4e487b71000000000000000000000000000000000000000000000000000000005f52604160045260245ffd5b7fe2517d3f000000000000000000000000000000000000000000000000000000005f52336004525f60245260445ffd5b346102bd5760406003193601126102bd57610631610c99565b335f9081527f7d7ffb7a348e1c6a02869081a26547b49160dd3df72d1d75a570eb9b698292ec602052604090205460ff1615610673576102b0906024356110d8565b7fe2517d3f000000000000000000000000000000000000000000000000000000005f52336004527fa49807205ce4d355092ef5a8a18f56e8913cf4a201fbe287825b095693c2177560245260445ffd5b346102bd575f6003193601126102bd5760206040515f8152f35b346102bd5760406003193601126102bd576106f6610c76565b6004355f525f60205273ffffffffffffffffffffffffffffffffffffffff60405f2091165f52602052602060ff60405f2054166040519015158152f35b346102bd5760206003193601126102bd5760043567ffffffffffffffff81116102bd57610764903690600401610cbc565b9061076d610ee1565b335f52600360205261078160405f20610daf565b91604051602081018451916107b981602086818a01968088885e8301818a8483015f81523701015f815203601f198101835282610d8c565b519020936040516080810181811067ffffffffffffffff8211176105bb576040526040516020810181811067ffffffffffffffff8211176105bb576040525f8152815260208101955f875260408201915f83526060810191600183525f52600260205260405f20905197885167ffffffffffffffff81116105bb57610848816108428554610d3b565b85610e92565b6020601f821160011461095557916108a18260409998979695936002957ffc4e1262d3c917ab30e2bb4c87f294aff4a184374f0555effeba8dff32a18cfd9d9e5f9261094a5750505f198260011b9260031b1c19161790565b82555b516001820155019151151560ff7fffffffffffffffffffffffffffffffffffffffffffffffffffffffffffffff0084541691161782555115157fffffffffffffffffffffffffffffffffffffffffffffffffffffffffffff00ff61ff0083549260081b1691161790558251918291518091835e81015f815203902093601f19601f84845195869460208652816020870152868601375f85828601015201168101030190a2005b015190508e8061052f565b601f1982169a845f52815f209b5f5b8181106109cb5750927ffc4e1262d3c917ab30e2bb4c87f294aff4a184374f0555effeba8dff32a18cfd9b9c600295936001938360409d9c9b9a9997106109b3575b505050811b0182556108a4565b01515f1960f88460031b161c191690558d80806109a6565b838301518e556001909d019c60209384019301610964565b346102bd575f6003193601126102bd5760206040517fa49807205ce4d355092ef5a8a18f56e8913cf4a201fbe287825b095693c217758152f35b346102bd5760406003193601126102bd5760043567ffffffffffffffff81116102bd57610a4e903690600401610cbc565b60243567ffffffffffffffff81116102bd57602091610a74610aa1923690600401610cbc565b80949160405195848795858701998a378501918483015f81523701015f815203601f198101835282610d8c565b5190205f526002602052602060ff600260405f20015460081c166040519015158152f35b346102bd575f6003193601126102bd5760206040517f5bb0bf1fabd5e975fc7a4520766d9e86e0eb281f8c7c44fcd3dfe60a11e786ca8152f35b346102bd5760406003193601126102bd57610b18610c76565b3373ffffffffffffffffffffffffffffffffffffffff821603610b41576102b0906004356111aa565b7f6697b232000000000000000000000000000000000000000000000000000000005f5260045ffd5b346102bd5760406003193601126102bd576102b0600435610b88610c76565b90610ba161041c825f525f602052600160405f20015490565b6110d8565b346102bd5760206003193601126102bd576020610bd06004355f525f602052600160405f20015490565b604051908152f35b346102bd5760206003193601126102bd57600435907fffffffff0000000000000000000000000000000000000000000000000000000082168092036102bd57817f7965db0b0000000000000000000000000000000000000000000000000000000060209314908115610c4c575b5015158152f35b7f01ffc9a70000000000000000000000000000000000000000000000000000000091501483610c45565b6024359073ffffffffffffffffffffffffffffffffffffffff821682036102bd57565b6004359073ffffffffffffffffffffffffffffffffffffffff821682036102bd57565b9181601f840112156102bd5782359167ffffffffffffffff83116102bd57602083818601950101116102bd57565b9060406003198301126102bd5760043573ffffffffffffffffffffffffffffffffffffffff811681036102bd57916024359067ffffffffffffffff82116102bd57610d3791600401610cbc565b9091565b90600182811c92168015610d82575b6020831014610d5557565b7f4e487b71000000000000000000000000000000000000000000000000000000005f52602260045260245ffd5b91607f1691610d4a565b90601f601f19910116810190811067ffffffffffffffff8211176105bb57604052565b9060405191825f825492610dc284610d3b565b8084529360018116908115610e2d5750600114610de9575b50610de792500383610d8c565b565b90505f9291925260205f20905f915b818310610e11575050906020610de7928201015f610dda565b6020919350806001915483858901015201910190918492610df8565b60209350610de79592507fffffffffffffffffffffffffffffffffffffffffffffffffffffffffffffff0091501682840152151560051b8201015f610dda565b90601f19601f602080948051918291828752018686015e5f8582860101520116010190565b601f8211610e9f57505050565b5f5260205f20906020601f840160051c83019310610ed7575b601f0160051c01905b818110610ecc575050565b5f8155600101610ec1565b9091508190610eb8565b335f9081527f1a7760066bd1f06df3a1a816a948cb99a3a2e8ffa5089500e84706868bfe072d602052604090205460ff1615610f1957565b7fe2517d3f000000000000000000000000000000000000000000000000000000005f52336004527f5bb0bf1fabd5e975fc7a4520766d9e86e0eb281f8c7c44fcd3dfe60a11e786ca60245260445ffd5b805f525f60205260405f2073ffffffffffffffffffffffffffffffffffffffff33165f5260205260ff60405f20541615610fa05750565b7fe2517d3f000000000000000000000000000000000000000000000000000000005f523360045260245260445ffd5b73ffffffffffffffffffffffffffffffffffffffff81165f9081527f1a7760066bd1f06df3a1a816a948cb99a3a2e8ffa5089500e84706868bfe072d602052604090205460ff166110d35773ffffffffffffffffffffffffffffffffffffffff165f8181527f1a7760066bd1f06df3a1a816a948cb99a3a2e8ffa5089500e84706868bfe072d6020526040812080547fffffffffffffffffffffffffffffffffffffffffffffffffffffffffffffff001660011790553391907f5bb0bf1fabd5e975fc7a4520766d9e86e0eb281f8c7c44fcd3dfe60a11e786ca907f2f8788117e7eff1d82e926ec794901d17c78024a50270940304540a733656f0d9080a4600190565b505f90565b805f525f60205260405f2073ffffffffffffffffffffffffffffffffffffffff83165f5260205260ff60405f205416155f146111a457805f525f60205260405f2073ffffffffffffffffffffffffffffffffffffffff83165f5260205260405f2060017fffffffffffffffffffffffffffffffffffffffffffffffffffffffffffffff0082541617905573ffffffffffffffffffffffffffffffffffffffff339216907f2f8788117e7eff1d82e926ec794901d17c78024a50270940304540a733656f0d5f80a4600190565b50505f90565b805f525f60205260405f2073ffffffffffffffffffffffffffffffffffffffff83165f5260205260ff60405f2054165f146111a457805f525f60205260405f2073ffffffffffffffffffffffffffffffffffffffff83165f5260205260405f207fffffffffffffffffffffffffffffffffffffffffffffffffffffffffffffff00815416905573ffffffffffffffffffffffffffffffffffffffff339216907ff6391f5c32d9c69d2a47ea670b442974b53935d1edc7fd64eb21e047a839171b5f80a460019056fea26469706673582212200201ff2756a16dc915ffac47ba2a72fce086250a264076231e3658b6f93f52ad64736f6c634300081c00332f8788117e7eff1d82e926ec794901d17c78024a50270940304540a733656f0d1a7760066bd1f06df3a1a816a948cb99a3a2e8ffa5089500e84706868bfe072d7d7ffb7a348e1c6a02869081a26547b49160dd3df72d1d75a570eb9b698292ecad3228b676f7d3cd4284a5443f17f1962b36e491b30a40b2405849e597ba5fb5","linkReferences":{}},"methodIdentifiers":{"ADMIN_ROLE()":"75b238fc","DEFAULT_ADMIN_ROLE()":"a217fddf","UNIVERSITY_ROLE()":"3d178414","getRoleAdmin(bytes32)":"248a9ca3","grantRole(address,bytes32)":"ab2742dc","grantRole(bytes32,address)":"2f2ff15d","hasRole(bytes32,address)":"91d14854","isValidProgram(string,string)":"58e39e3a","programs(bytes32)":"d7d9a2a7","registerProgram(string)":"83ec9eee","registerUniversity(address,string)":"ace3d595","renounceRole(bytes32,address)":"36568abe","revokeRole(bytes32,address)":"d547741f","supportsInterface(bytes4)":"01ffc9a7","universityRegistry(address)":"c50be191","verifyAdmission(address,string)":"ef23e929"},"id":33}