{
	"abi": [
		{
			"type": "constructor",
			"inputs": [
				{
					"name": "_visaSystem",
					"type": "address",
					"internalType": "address"
				}
			],
			"stateMutability": "nonpayable"
		},
		{
			"type": "function",
			"name": "DEFAULT_ADMIN_ROLE",
			"inputs": [],
			"outputs": [
				{
					"name": "",
					"type": "bytes32",
					"internalType": "bytes32"
				}
			],
			"stateMutability": "view"
		},
		{
			"type": "function",
			"name": "VERIFIER_ROLE",
			"inputs": [],
			"outputs": [
				{
					"name": "",
					"type": "bytes32",
					"internalType": "bytes32"
				}
			],
			"stateMutability": "view"
		},
		{
			"type": "function",
			"name": "calculateTrustScore",
			"inputs": [
				{
					"name": "verifier",
					"type": "address",
					"internalType": "address"
				}
			],
			"outputs": [
				{
					"name": "",
					"type": "uint256",
					"internalType": "uint256"
				}
			],
			"stateMutability": "view"
		},
		{
			"type": "function",
			"name": "getRoleAdmin",
			"inputs": [
				{
					"name": "role",
					"type": "bytes32",
					"internalType": "bytes32"
				}
			],
			"outputs": [
				{
					"name": "",
					"type": "bytes32",
					"internalType": "bytes32"
				}
			],
			"stateMutability": "view"
		},
		{
			"type": "function",
			"name": "getVerificationHistory",
			"inputs": [
				{
					"name": "applicant",
					"type": "address",
					"internalType": "address"
				}
			],
			"outputs": [
				{
					"name": "",
					"type": "tuple[]",
					"internalType": "struct IVerificationHub.VerificationResult[]",
					"components": [
						{
							"name": "verifier",
							"type": "address",
							"internalType": "address"
						},
						{
							"name": "timestamp",
							"type": "uint256",
							"internalType": "uint256"
						},
						{
							"name": "isValid",
							"type": "bool",
							"internalType": "bool"
						},
						{
							"name": "proof",
							"type": "string",
							"internalType": "string"
						}
					]
				}
			],
			"stateMutability": "view"
		},
		{
			"type": "function",
			"name": "grantRole",
			"inputs": [
				{
					"name": "role",
					"type": "bytes32",
					"internalType": "bytes32"
				},
				{
					"name": "account",
					"type": "address",
					"internalType": "address"
				}
			],
			"outputs": [],
			"stateMutability": "nonpayable"
		},
		{
			"type": "function",
			"name": "hasRole",
			"inputs": [
				{
					"name": "role",
					"type": "bytes32",
					"internalType": "bytes32"
				},
				{
					"name": "account",
					"type": "address",
					"internalType": "address"
				}
			],
			"outputs": [
				{
					"name": "",
					"type": "bool",
					"internalType": "bool"
				}
			],
			"stateMutability": "view"
		},
		{
			"type": "function",
			"name": "initializeRoles",
			"inputs": [],
			"outputs": [],
			"stateMutability": "nonpayable"
		},
		{
			"type": "function",
			"name": "processVerification",
			"inputs": [
				{
					"name": "requestId",
					"type": "bytes32",
					"internalType": "bytes32"
				},
				{
					"name": "isValid",
					"type": "bool",
					"internalType": "bool"
				}
			],
			"outputs": [],
			"stateMutability": "nonpayable"
		},
		{
			"type": "function",
			"name": "registerVerifier",
			"inputs": [
				{
					"name": "verifier",
					"type": "address",
					"internalType": "address"
				},
				{
					"name": "credentials",
					"type": "string",
					"internalType": "string"
				}
			],
			"outputs": [],
			"stateMutability": "nonpayable"
		},
		{
			"type": "function",
			"name": "renounceRole",
			"inputs": [
				{
					"name": "role",
					"type": "bytes32",
					"internalType": "bytes32"
				},
				{
					"name": "callerConfirmation",
					"type": "address",
					"internalType": "address"
				}
			],
			"outputs": [],
			"stateMutability": "nonpayable"
		},
		{
			"type": "function",
			"name": "requestVerification",
			"inputs": [
				{
					"name": "applicant",
					"type": "address",
					"internalType": "address"
				},
				{
					"name": "vType",
					"type": "uint8",
					"internalType": "enum VerificationHub.VerificationType"
				},
				{
					"name": "proof",
					"type": "string",
					"internalType": "string"
				}
			],
			"outputs": [],
			"stateMutability": "nonpayable"
		},
		{
			"type": "function",
			"name": "revokeRole",
			"inputs": [
				{
					"name": "role",
					"type": "bytes32",
					"internalType": "bytes32"
				},
				{
					"name": "account",
					"type": "address",
					"internalType": "address"
				}
			],
			"outputs": [],
			"stateMutability": "nonpayable"
		},
		{
			"type": "function",
			"name": "supportsInterface",
			"inputs": [
				{
					"name": "interfaceId",
					"type": "bytes4",
					"internalType": "bytes4"
				}
			],
			"outputs": [
				{
					"name": "",
					"type": "bool",
					"internalType": "bool"
				}
			],
			"stateMutability": "view"
		},
		{
			"type": "function",
			"name": "verificationRecords",
			"inputs": [
				{
					"name": "",
					"type": "address",
					"internalType": "address"
				},
				{
					"name": "",
					"type": "uint8",
					"internalType": "enum VerificationHub.VerificationType"
				},
				{
					"name": "",
					"type": "uint256",
					"internalType": "uint256"
				}
			],
			"outputs": [
				{
					"name": "verifier",
					"type": "address",
					"internalType": "address"
				},
				{
					"name": "timestamp",
					"type": "uint256",
					"internalType": "uint256"
				},
				{
					"name": "isValid",
					"type": "bool",
					"internalType": "bool"
				},
				{
					"name": "proof",
					"type": "string",
					"internalType": "string"
				}
			],
			"stateMutability": "view"
		},
		{
			"type": "function",
			"name": "verificationRequests",
			"inputs": [
				{
					"name": "",
					"type": "bytes32",
					"internalType": "bytes32"
				}
			],
			"outputs": [
				{
					"name": "applicant",
					"type": "address",
					"internalType": "address"
				},
				{
					"name": "vType",
					"type": "uint8",
					"internalType": "enum VerificationHub.VerificationType"
				},
				{
					"name": "proof",
					"type": "string",
					"internalType": "string"
				},
				{
					"name": "completed",
					"type": "bool",
					"internalType": "bool"
				},
				{
					"name": "verifier",
					"type": "address",
					"internalType": "address"
				}
			],
			"stateMutability": "view"
		},
		{
			"type": "function",
			"name": "verifiers",
			"inputs": [
				{
					"name": "",
					"type": "address",
					"internalType": "address"
				}
			],
			"outputs": [
				{
					"name": "credentials",
					"type": "string",
					"internalType": "string"
				},
				{
					"name": "totalVerifications",
					"type": "uint256",
					"internalType": "uint256"
				},
				{
					"name": "successfulVerifications",
					"type": "uint256",
					"internalType": "uint256"
				},
				{
					"name": "lastActivity",
					"type": "uint256",
					"internalType": "uint256"
				}
			],
			"stateMutability": "view"
		},
		{
			"type": "function",
			"name": "visaSystem",
			"inputs": [],
			"outputs": [
				{
					"name": "",
					"type": "address",
					"internalType": "contract StudentVisaSystem"
				}
			],
			"stateMutability": "view"
		},
		{
			"type": "event",
			"name": "RoleAdminChanged",
			"inputs": [
				{
					"name": "role",
					"type": "bytes32",
					"indexed": true,
					"internalType": "bytes32"
				},
				{
					"name": "previousAdminRole",
					"type": "bytes32",
					"indexed": true,
					"internalType": "bytes32"
				},
				{
					"name": "newAdminRole",
					"type": "bytes32",
					"indexed": true,
					"internalType": "bytes32"
				}
			],
			"anonymous": false
		},
		{
			"type": "event",
			"name": "RoleGranted",
			"inputs": [
				{
					"name": "role",
					"type": "bytes32",
					"indexed": true,
					"internalType": "bytes32"
				},
				{
					"name": "account",
					"type": "address",
					"indexed": true,
					"internalType": "address"
				},
				{
					"name": "sender",
					"type": "address",
					"indexed": true,
					"internalType": "address"
				}
			],
			"anonymous": false
		},
		{
			"type": "event",
			"name": "RoleRevoked",
			"inputs": [
				{
					"name": "role",
					"type": "bytes32",
					"indexed": true,
					"internalType": "bytes32"
				},
				{
					"name": "account",
					"type": "address",
					"indexed": true,
					"internalType": "address"
				},
				{
					"name": "sender",
					"type": "address",
					"indexed": true,
					"internalType": "address"
				}
			],
			"anonymous": false
		},
		{
			"type": "event",
			"name": "VerificationCompleted",
			"inputs": [
				{
					"name": "requestId",
					"type": "bytes32",
					"indexed": false,
					"internalType": "bytes32"
				},
				{
					"name": "result",
					"type": "bool",
					"indexed": false,
					"internalType": "bool"
				}
			],
			"anonymous": false
		},
		{
			"type": "event",
			"name": "VerificationRequested",
			"inputs": [
				{
					"name": "requestId",
					"type": "bytes32",
					"indexed": false,
					"internalType": "bytes32"
				},
				{
					"name": "applicant",
					"type": "address",
					"indexed": false,
					"internalType": "address"
				},
				{
					"name": "vType",
					"type": "uint8",
					"indexed": false,
					"internalType": "enum VerificationHub.VerificationType"
				}
			],
			"anonymous": false
		},
		{
			"type": "event",
			"name": "VerifierRegistered",
			"inputs": [
				{
					"name": "verifier",
					"type": "address",
					"indexed": false,
					"internalType": "address"
				}
			],
			"anonymous": false
		},
		{
			"type": "error",
			"name": "AccessControlBadConfirmation",
			"inputs": []
		},
		{
			"type": "error",
			"name": "AccessControlUnauthorizedAccount",
			"inputs": [
				{
					"name": "account",
					"type": "address",
					"internalType": "address"
				},
				{
					"name": "neededRole",
					"type": "bytes32",
					"internalType": "bytes32"
				}
			]
		},
		{
			"type": "error",
			"name": "VerificationHub__InvalidApplicant",
			"inputs": []
		},
		{
			"type": "error",
			"name": "VerificationHub__RequestAlreadyProcessed",
			"inputs": []
		}
	],
	"bytecode": {
		"object": "0x60803461007e57601f611ea538819003918201601f19168301916001600160401b038311848410176100825780849260209460405283398101031261007e57516001600160a01b0381169081900361007e5761005a33610096565b50600180546001600160a01b031916919091179055604051611d6590816101208239f35b5f80fd5b634e487b7160e01b5f52604160045260245ffd5b6001600160a01b0381165f9081525f516020611e855f395f51905f52602052604090205460ff1661011a576001600160a01b03165f8181525f516020611e855f395f51905f5260205260408120805460ff191660011790553391907f2f8788117e7eff1d82e926ec794901d17c78024a50270940304540a733656f0d8180a4600190565b505f9056fe6080806040526004361015610012575f80fd5b5f905f3560e01c90816301ffc9a7146115ab575080630f3908c81461151757806320524a2a14611213578063248a9ca3146111e95780632853438514610d6e5780632f2ff15d14610d3157806336568abe14610cc75780633776fe2a14610a885780636c82448714610a0857806372a0e7b0146109425780637b4c0e491461090f57806386f182de146108e457806391d148541461088e578063a1eb3eaf1461077c578063a217fddf14610760578063bfa3d5c714610168578063d547741f146101215763e7705db6146100e4575f80fd5b3461011e578060031936011261011e5760206040517f0ce23c3e399818cfee81a7ab0880f714e53d7672b08df0fa62f2843416e1ea098152f35b80fd5b503461011e57604060031936011261011e576101646004356101416117ce565b9061015f61015a825f525f602052600160405f20015490565b611a80565b611c85565b5080f35b503461011e57604060031936011261011e5760043560243590811515918281036104e2577f0ce23c3e399818cfee81a7ab0880f714e53d7672b08df0fa62f2843416e1ea098452836020526040842073ffffffffffffffffffffffffffffffffffffffff33165f5260205260ff60405f2054161561071057818452600260205260408420600281019160ff8354166106e95773ffffffffffffffffffffffffffffffffffffffff600154168254906024602073ffffffffffffffffffffffffffffffffffffffff841692604051928380927f3e7cdae10000000000000000000000000000000000000000000000000000000082528660048301525afa9081156106de57899161069f575b50156106775787526004602052604087206102939160a01c60ff169061181f565b60405161029f8161169a565b3381526020810142815260408201908882526102bd600187016116d9565b93606084019485528054906801000000000000000082101561064a57906102e991600182018155611835565b93909361061e57916103589173ffffffffffffffffffffffffffffffffffffffff80600396955116167fffffffffffffffffffffffff0000000000000000000000000000000000000000855416178455516001840155511515600283019060ff60ff1983541691151516179055565b01905180519067ffffffffffffffff82116105f15790829161037d8a96959454611649565b601f811161059c575b50602090601f8311600114610537578691908361052c575b50505f198260011b9260031b1c19161790555b33835260036020526040832081600182016103cc81546119f6565b9055610517575b6003429101555f146104f15760055b73ffffffffffffffffffffffffffffffffffffffff806001541692541690823b156104e257604484928360405195869485937f804e8a150000000000000000000000000000000000000000000000000000000085526004850152820b60248401525af180156104e6576104c9575b5081547fffffffffffffffffffffff000000000000000000000000000000000000000000163360081b74ffffffffffffffffffffffffffffffffffffffff00161760011782557fa289beb80c68c0f30d87dd708a039781dd73018ea8370cd36dbd9cc5ebe9fb746040848682519182526020820152a180f35b816104d6919493946116b6565b6104e25790835f610450565b8380fd5b6040513d84823e3d90fd5b7ffffffffffffffffffffffffffffffffffffffffffffffffffffffffffffffffd6103e2565b6002810161052581546119f6565b90556103d3565b015190505f8061039e565b8387528187209190601f198416885b8181106105815750908460019594939210610569575b505050811b0190556103b1565b01515f1960f88460031b161c191690555f808061055c565b8284015185558d995060019094019360209384019301610546565b909192809495965260208a20601f840160051c810191602085106105e7575b90601f8c989796959493920160051c01905b8181106105da5750610386565b9687558a966001016105cd565b90915081906105bb565b6024897f4e487b710000000000000000000000000000000000000000000000000000000081526041600452fd5b60248b7f4e487b7100000000000000000000000000000000000000000000000000000000815280600452fd5b60248c7f4e487b710000000000000000000000000000000000000000000000000000000081526041600452fd5b6004887f9d00a8b4000000000000000000000000000000000000000000000000000000008152fd5b90506020813d6020116106d6575b816106ba602093836116b6565b810103126106d2575180151581036106d2575f610272565b8880fd5b3d91506106ad565b6040513d8b823e3d90fd5b6004867eb39889000000000000000000000000000000000000000000000000000000008152fd5b6044847fe2517d3f000000000000000000000000000000000000000000000000000000008152336004527f0ce23c3e399818cfee81a7ab0880f714e53d7672b08df0fa62f2843416e1ea09602452fd5b503461011e578060031936011261011e57602090604051908152f35b5034610858575f60031936011261085857610795611a18565b73ffffffffffffffffffffffffffffffffffffffff600154166040517f9e93d026000000000000000000000000000000000000000000000000000000008152602081600481855afa90811561084d575f9161085c575b50813b15610858575f916044839260405194859384927f2f2ff15d00000000000000000000000000000000000000000000000000000000845260048401523060248401525af1801561084d5761083f575080f35b61084b91505f906116b6565b005b6040513d5f823e3d90fd5b5f80fd5b90506020813d602011610886575b81610877602093836116b6565b8101031261085857515f6107eb565b3d915061086a565b34610858576040600319360112610858576108a76117ce565b6004355f525f60205273ffffffffffffffffffffffffffffffffffffffff60405f2091165f52602052602060ff60405f2054166040519015158152f35b346108585760206003193601126108585760206109076109026117ab565b611913565b604051908152f35b34610858575f60031936011261085857602073ffffffffffffffffffffffffffffffffffffffff60015416604051908152f35b346108585760606003193601126108585761095b6117ab565b6024356003811015610858576109959073ffffffffffffffffffffffffffffffffffffffff60443593165f52600460205260405f2061181f565b908154811015610858576109a891611835565b5073ffffffffffffffffffffffffffffffffffffffff815416610a046001830154926109de600360ff60028401541692016116d9565b906040519485948552602085015215156040840152608060608401526080830190611786565b0390f35b346108585760206003193601126108585773ffffffffffffffffffffffffffffffffffffffff610a366117ab565b165f526003602052610a7460405f20610a4e816116d9565b906001810154906003600282015491015490604051948594608086526080860190611786565b926020850152604084015260608301520390f35b3461085857604060031936011261085857610aa16117ab565b6024359067ffffffffffffffff821161085857610ac5610aed9236906004016117f1565b9290610acf611a18565b610ad883611ae6565b5060405193610ae68561169a565b3691611893565b825260208201915f835260408101915f835273ffffffffffffffffffffffffffffffffffffffff60608301914283521692835f52600360205260405f20925194855167ffffffffffffffff8111610c9a57610b488554611649565b601f8111610c55575b506020601f8211600114610bca579181600394926020989796947f85cf819da48b7e3c138cca9531adae41f25faeff5801e9e096eb2c1fb3cbbab79a5f92610bbf575b50505f198260011b92871b1c19161785555b51600185015551600284015551910155604051908152a1005b015190508a80610b94565b601f19821697865f52815f20985f5b818110610c3d5750927f85cf819da48b7e3c138cca9531adae41f25faeff5801e9e096eb2c1fb3cbbab79960209998979593600193836003999710610c26575b505050811b018555610ba6565b01515f1960f8848a1b161c191690558a8080610c19565b838301518b556001909a019960209384019301610bd9565b855f5260205f20601f830160051c81019160208410610c90575b601f0160051c01905b818110610c855750610b51565b5f8155600101610c78565b9091508190610c6f565b7f4e487b71000000000000000000000000000000000000000000000000000000005f52604160045260245ffd5b3461085857604060031936011261085857610ce06117ce565b3373ffffffffffffffffffffffffffffffffffffffff821603610d095761084b90600435611c85565b7f6697b232000000000000000000000000000000000000000000000000000000005f5260045ffd5b346108585760406003193601126108585761084b600435610d506117ce565b90610d6961015a825f525f602052600160405f20015490565b611bd1565b3461085857606060031936011261085857610d876117ab565b60243560038110156108585760443567ffffffffffffffff811161085857610db39036906004016117f1565b92906004602073ffffffffffffffffffffffffffffffffffffffff60015416604051928380927f9e93d0260000000000000000000000000000000000000000000000000000000082525afa801561084d575f906111b5575b610e159150611a80565b60405160208101907fffffffffffffffffffffffffffffffffffffffff00000000000000000000000073ffffffffffffffffffffffffffffffffffffffff85169460601b1682528460f81b603482015285836035830137610e8860206035838981014283820152030180845201826116b6565b519020936040519160a083019083821067ffffffffffffffff831117610c9a57610ec19160405284845260208401928684523691611893565b916040810192835260608101925f845260808201925f8452875f52600260205273ffffffffffffffffffffffffffffffffffffffff8060405f20945116167fffffffffffffffffffffffff0000000000000000000000000000000000000000845416178355516003811015611188577fffffffffffffffffffffff00ffffffffffffffffffffffffffffffffffffffff74ff000000000000000000000000000000000000000084549260a01b16911617825560018201905180519067ffffffffffffffff8211610c9a57610f958354611649565b601f8111611143575b50602090601f8311600114611096579461102d60027f79cbe88769ec6c77904c0a5f6819fe579bf1e7be248136c817b25ac4d50445849b999661107396866110889b9773ffffffffffffffffffffffffffffffffffffffff9760609f9c5f9261108b575b50505f198260011b9260031b1c19161790555b0193511515849060ff60ff1983541691151516179055565b5182547fffffffffffffffffffffff0000000000000000000000000000000000000000ff16911660081b74ffffffffffffffffffffffffffffffffffffffff0016179055565b60405193845260208401526040830190611779565ba1005b015190505f80611002565b90601f19831691845f52815f20925f5b81811061112b57507f79cbe88769ec6c77904c0a5f6819fe579bf1e7be248136c817b25ac4d50445849b99966110739660018773ffffffffffffffffffffffffffffffffffffffff9760609f9c9761102d976110889f9b60029810611113575b505050811b019055611015565b01515f1960f88460031b161c191690555f8080611106565b929360206001819287860151815501950193016110a6565b835f5260205f20601f840160051c8101916020851061117e575b601f0160051c01905b8181106111735750610f9e565b5f8155600101611166565b909150819061115d565b7f4e487b71000000000000000000000000000000000000000000000000000000005f52602160045260245ffd5b506020813d6020116111e1575b816111cf602093836116b6565b8101031261085857610e159051610e0b565b3d91506111c2565b346108585760206003193601126108585760206109076004355f525f602052600160405f20015490565b346108585760206003193601126108585761122c6117ab565b604051602061123b81836116b6565b5f8252601f19015f5b8181106114e85750509073ffffffffffffffffffffffffffffffffffffffff5f9116915b60ff8216600281101561142857835f52600460205260405f20906003811015611188576112949161181f565b9182546112a08161187b565b936112ae60405195866116b6565b81855260208501905f5260205f20905f905b8382106113c557505050506112d882518451906118d9565b93601f196112fe6112e88761187b565b966112f660405198896116b6565b80885261187b565b015f5b8181106113965750505f5b835181101561133f578061132260019286611a04565b5161132d8289611a04565b526113388188611a04565b500161130c565b92509290925f5b8251811015611383578061137c61135f60019386611a04565b5161136a83886118d9565b90611375828b611a04565b5288611a04565b5001611346565b509360ff92506001915092011690611268565b6020906040516113a58161169a565b5f81525f838201525f604082015260608082015282828a01015201611301565b600460206001926040516113d88161169a565b73ffffffffffffffffffffffffffffffffffffffff8754168152848701548382015260ff60028801541615156040820152611415600388016116d9565b60608201528152019301910190916112c0565b506040518091602082016020835281518091526040830190602060408260051b8601019301915f905b82821061146057505050500390f35b919360206114d8827fffffffffffffffffffffffffffffffffffffffffffffffffffffffffffffffc06001959799849503018652608060608a5173ffffffffffffffffffffffffffffffffffffffff815116845285810151868501526040810151151560408501520151918160608201520190611786565b9601920192018594939192611451565b6020906040516114f78161169a565b5f81525f838201525f604082015260608082015282828601015201611244565b34610858576020600319360112610858576004355f52600260205261158160405f2080549073ffffffffffffffffffffffffffffffffffffffff6115926002611562600185016116d9565b93015492604051958584889716875260ff602088019160a01c16611779565b60a0604086015260a0850190611786565b9160ff81161515606085015260081c1660808301520390f35b3461085857602060031936011261085857600435907fffffffff00000000000000000000000000000000000000000000000000000000821680920361085857817f7965db0b000000000000000000000000000000000000000000000000000000006020931490811561161f575b5015158152f35b7f01ffc9a70000000000000000000000000000000000000000000000000000000091501483611618565b90600182811c92168015611690575b602083101461166357565b7f4e487b71000000000000000000000000000000000000000000000000000000005f52602260045260245ffd5b91607f1691611658565b6080810190811067ffffffffffffffff821117610c9a57604052565b90601f601f19910116810190811067ffffffffffffffff821117610c9a57604052565b9060405191825f8254926116ec84611649565b80845293600181169081156117575750600114611713575b50611711925003836116b6565b565b90505f9291925260205f20905f915b81831061173b575050906020611711928201015f611704565b6020919350806001915483858901015201910190918492611722565b6020935061171195925060ff1991501682840152151560051b8201015f611704565b9060038210156111885752565b90601f19601f602080948051918291828752018686015e5f8582860101520116010190565b6004359073ffffffffffffffffffffffffffffffffffffffff8216820361085857565b6024359073ffffffffffffffffffffffffffffffffffffffff8216820361085857565b9181601f840112156108585782359167ffffffffffffffff8311610858576020838186019501011161085857565b906003811015611188575f5260205260405f2090565b805482101561184e575f5260205f209060021b01905f90565b7f4e487b71000000000000000000000000000000000000000000000000000000005f52603260045260245ffd5b67ffffffffffffffff8111610c9a5760051b60200190565b92919267ffffffffffffffff8211610c9a57604051916118bd6020601f19601f84011601846116b6565b829481845281830111610858578281602093845f960137010152565b919082018092116118e657565b7f4e487b71000000000000000000000000000000000000000000000000000000005f52601160045260245ffd5b73ffffffffffffffffffffffffffffffffffffffff165f52600360205260405f20604051906119418261169a565b61194a816116d9565b8252600181015460208301908082526060600360028501549485604088015201549401938452156119ef576064820291808304606414901517156118e657519182156119c257514203914283116118e65762278d006119b793105f146119ba5760ff60145b1691046118d9565b90565b60ff5f6119af565b7f4e487b71000000000000000000000000000000000000000000000000000000005f52601260045260245ffd5b5050505f90565b5f1981146118e65760010190565b805182101561184e5760209160051b010190565b335f9081527fad3228b676f7d3cd4284a5443f17f1962b36e491b30a40b2405849e597ba5fb5602052604090205460ff1615611a5057565b7fe2517d3f000000000000000000000000000000000000000000000000000000005f52336004525f60245260445ffd5b805f525f60205260405f2073ffffffffffffffffffffffffffffffffffffffff33165f5260205260ff60405f20541615611ab75750565b7fe2517d3f000000000000000000000000000000000000000000000000000000005f523360045260245260445ffd5b73ffffffffffffffffffffffffffffffffffffffff81165f9081527f1da0b5176dfe03406af5a6eed66ca01dda9b45ac4da671c3fa379cb93717ef81602052604090205460ff16611bcc5773ffffffffffffffffffffffffffffffffffffffff165f8181527f1da0b5176dfe03406af5a6eed66ca01dda9b45ac4da671c3fa379cb93717ef8160205260408120805460ff191660011790553391907f0ce23c3e399818cfee81a7ab0880f714e53d7672b08df0fa62f2843416e1ea09907f2f8788117e7eff1d82e926ec794901d17c78024a50270940304540a733656f0d9080a4600190565b505f90565b805f525f60205260405f2073ffffffffffffffffffffffffffffffffffffffff83165f5260205260ff60405f205416155f14611c7f57805f525f60205260405f2073ffffffffffffffffffffffffffffffffffffffff83165f5260205260405f20600160ff1982541617905573ffffffffffffffffffffffffffffffffffffffff339216907f2f8788117e7eff1d82e926ec794901d17c78024a50270940304540a733656f0d5f80a4600190565b50505f90565b805f525f60205260405f2073ffffffffffffffffffffffffffffffffffffffff83165f5260205260ff60405f2054165f14611c7f57805f525f60205260405f2073ffffffffffffffffffffffffffffffffffffffff83165f5260205260405f2060ff19815416905573ffffffffffffffffffffffffffffffffffffffff339216907ff6391f5c32d9c69d2a47ea670b442974b53935d1edc7fd64eb21e047a839171b5f80a460019056fea2646970667358221220561c1e49d94e32461621d1897acb0f210e5956e09e53a0205a6c44c416359f8e64736f6c634300081c0033ad3228b676f7d3cd4284a5443f17f1962b36e491b30a40b2405849e597ba5fb5",
		"linkReferences": {}
	},
	"methodIdentifiers": {
		"DEFAULT_ADMIN_ROLE()": "a217fddf",
		"VERIFIER_ROLE()": "e7705db6",
		"calculateTrustScore(address)": "86f182de",
		"getRoleAdmin(bytes32)": "248a9ca3",
		"getVerificationHistory(address)": "20524a2a",
		"grantRole(bytes32,address)": "2f2ff15d",
		"hasRole(bytes32,address)": "91d14854",
		"initializeRoles()": "a1eb3eaf",
		"processVerification(bytes32,bool)": "bfa3d5c7",
		"registerVerifier(address,string)": "3776fe2a",
		"renounceRole(bytes32,address)": "36568abe",
		"requestVerification(address,uint8,string)": "28534385",
		"revokeRole(bytes32,address)": "d547741f",
		"supportsInterface(bytes4)": "01ffc9a7",
		"verificationRecords(address,uint8,uint256)": "72a0e7b0",
		"verificationRequests(bytes32)": "0f3908c8",
		"verifiers(address)": "6c824487",
		"visaSystem()": "7b4c0e49"
	},
	"id": 34
}